{
  "transactions": [
    {
      "hash": "0xb99e058e8d7c1a42f7933b118e5f91a7c1fb419df29b27b87615abe043c96199",
      "transactionType": "CREATE",
      "contractName": "Arbitrage",
      "contractAddress": "0x5a0be4afe3efd82dd574025a975a598f34366740",
      "function": null,
      "arguments": [
        "0xD05E72F6C74Be61d74Cb7e003f6E869C287606b0",
        "0x02F957CF974797CF2CdeBd43994232A38802581c",
        "0x1804c8AB1F12E6bbf3894d4083f33e07309d1f38"
      ],
      "transaction": {
        "from": "0xaaf296ac355b938d6263ac1ccbb4ac61c964d176",
        "gas": "0x126639",
        "value": "0x0",
        "input": "0x608060405234801562000010575f80fd5b50604051620011413803806200114183398101604081905262000033916200036d565b806001600160a01b0381166200006357604051631e4fbdf760e01b81525f60048201526024015b60405180910390fd5b6200006e8162000306565b50600180546001600160a01b038086166001600160a01b03199283168117909355600280549186169190921617905560408051630f20dc5360e31b81529051637906e298916004808201926020929091908290030181865afa158015620000d7573d5f803e3d5ffd5b505050506040513d601f19601f82011682018060405250810190620000fd9190620003be565b600380546001600160a01b0319166001600160a01b039283161790556001546040805163c7d709e960e01b81529051919092169163c7d709e99160048083019260209291908290030181865afa1580156200015a573d5f803e3d5ffd5b505050506040513d601f19601f82011682018060405250810190620001809190620003be565b600480546001600160a01b0319166001600160a01b0392831617815560025460408051630f20dc5360e31b815290519190931692637906e29892818101926020929091908290030181865afa158015620001dc573d5f803e3d5ffd5b505050506040513d601f19601f82011682018060405250810190620002029190620003be565b6003546001600160a01b039081169116148015620002a4575060025f9054906101000a90046001600160a01b03166001600160a01b031663c7d709e96040518163ffffffff1660e01b8152600401602060405180830381865afa1580156200026c573d5f803e3d5ffd5b505050506040513d601f19601f82011682018060405250810190620002929190620003be565b6004546001600160a01b039081169116145b620002fd5760405162461bcd60e51b815260206004820152602260248201527f4445586573206d75737420757365207468652073616d6520746f6b656e20706160448201526134b960f11b60648201526084016200005a565b505050620003e3565b5f80546001600160a01b038381166001600160a01b0319831681178455604051919092169283917f8be0079c531659141344cd1fd0a4f28419497f9722a3daafe3b4186f6b6457e09190a35050565b6001600160a01b03811681146200036a575f80fd5b50565b5f805f6060848603121562000380575f80fd5b83516200038d8162000355565b6020850151909350620003a08162000355565b6040850151909250620003b38162000355565b809150509250925092565b5f60208284031215620003cf575f80fd5b8151620003dc8162000355565b9392505050565b610d5080620003f15f395ff3fe608060405260043610610087575f3560e01c80638da5cb5b116100575780638da5cb5b14610121578063d21220a71461013d578063d4551ad61461015c578063daf7e78e1461017b578063f2fde38b1461019a575f80fd5b806306b091f91461009257806325be124e146100b3578063715018a6146100ee5780637cb5fbb314610102575f80fd5b3661008e57005b5f80fd5b34801561009d575f80fd5b506100b16100ac366004610c40565b6101b9565b005b3480156100be575f80fd5b506004546100d2906001600160a01b031681565b6040516001600160a01b03909116815260200160405180910390f35b3480156100f9575f80fd5b506100b1610339565b34801561010d575f80fd5b506100b161011c366004610c75565b61034c565b34801561012c575f80fd5b505f546001600160a01b03166100d2565b348015610148575f80fd5b506003546100d2906001600160a01b031681565b348015610167575f80fd5b506001546100d2906001600160a01b031681565b348015610186575f80fd5b506002546100d2906001600160a01b031681565b3480156101a5575f80fd5b506100b16101b4366004610ca3565b610b6d565b6101c1610baa565b6040516370a0823160e01b815230600482015282905f906001600160a01b038316906370a0823190602401602060405180830381865afa158015610207573d5f803e3d5ffd5b505050506040513d601f19601f8201168201806040525081019061022b9190610cc3565b9050828110156102795760405162461bcd60e51b8152602060048201526014602482015273496e73756666696369656e742062616c616e636560601b60448201526064015b60405180910390fd5b60405163a9059cbb60e01b8152336004820152602481018490526001600160a01b0383169063a9059cbb906044016020604051808303815f875af11580156102c3573d5f803e3d5ffd5b505050506040513d601f19601f820116820180604052508101906102e79190610cda565b6103335760405162461bcd60e51b815260206004820152601760248201527f546f6b656e207769746864726177616c206661696c65640000000000000000006044820152606401610270565b50505050565b610341610baa565b61034a5f610bd6565b565b610354610baa565b6003546040516370a0823160e01b815230600482015283916001600160a01b0316906370a0823190602401602060405180830381865afa15801561039a573d5f803e3d5ffd5b505050506040513d601f19601f820116820180604052508101906103be9190610cc3565b101561040c5760405162461bcd60e51b815260206004820152601b60248201527f496e73756666696369656e7420746f6b656e312062616c616e636500000000006044820152606401610270565b6003546040516370a0823160e01b81523060048201525f916001600160a01b0316906370a0823190602401602060405180830381865afa158015610452573d5f803e3d5ffd5b505050506040513d601f19601f820116820180604052508101906104769190610cc3565b60035460015460405163095ea7b360e01b81526001600160a01b03918216600482015260248101879052929350169063095ea7b3906044016020604051808303815f875af11580156104ca573d5f803e3d5ffd5b505050506040513d601f19601f820116820180604052508101906104ee9190610cda565b5060035460025460405163095ea7b360e01b81526001600160a01b0391821660048201526024810186905291169063095ea7b3906044016020604051808303815f875af1158015610541573d5f803e3d5ffd5b505050506040513d601f19601f820116820180604052508101906105659190610cda565b50811561076e5760015460035460405163d004f0f760e01b81526001600160a01b0391821660048201526024810186905291169063d004f0f7906044015f604051808303815f87803b1580156105b9575f80fd5b505af11580156105cb573d5f803e3d5ffd5b5050600480546040516370a0823160e01b815230928101929092525f93506001600160a01b031691506370a0823190602401602060405180830381865afa158015610618573d5f803e3d5ffd5b505050506040513d601f19601f8201168201806040525081019061063c9190610cc3565b90505f81116106885760405162461bcd60e51b81526020600482015260186024820152772330b4b632b2103a37903932b1b2b4bb32903a37b5b2b71960411b6044820152606401610270565b6004805460025460405163095ea7b360e01b81526001600160a01b039182169381019390935260248301849052169063095ea7b3906044016020604051808303815f875af11580156106dc573d5f803e3d5ffd5b505050506040513d601f19601f820116820180604052508101906107009190610cda565b506002546004805460405163d004f0f760e01b81526001600160a01b0391821692810192909252602482018490529091169063d004f0f7906044015f604051808303815f87803b158015610752575f80fd5b505af1158015610764573d5f803e3d5ffd5b505050505061096c565b60025460035460405163d004f0f760e01b81526001600160a01b0391821660048201526024810186905291169063d004f0f7906044015f604051808303815f87803b1580156107bb575f80fd5b505af11580156107cd573d5f803e3d5ffd5b5050600480546040516370a0823160e01b815230928101929092525f93506001600160a01b031691506370a0823190602401602060405180830381865afa15801561081a573d5f803e3d5ffd5b505050506040513d601f19601f8201168201806040525081019061083e9190610cc3565b90505f811161088a5760405162461bcd60e51b81526020600482015260186024820152772330b4b632b2103a37903932b1b2b4bb32903a37b5b2b71960411b6044820152606401610270565b6004805460015460405163095ea7b360e01b81526001600160a01b039182169381019390935260248301849052169063095ea7b3906044016020604051808303815f875af11580156108de573d5f803e3d5ffd5b505050506040513d601f19601f820116820180604052508101906109029190610cda565b506001546004805460405163d004f0f760e01b81526001600160a01b0391821692810192909252602482018490529091169063d004f0f7906044015f604051808303815f87803b158015610954575f80fd5b505af1158015610966573d5f803e3d5ffd5b50505050505b6003546040516370a0823160e01b81523060048201525f916001600160a01b0316906370a0823190602401602060405180830381865afa1580156109b2573d5f803e3d5ffd5b505050506040513d601f19601f820116820180604052508101906109d69190610cc3565b9050818111610a315760405162461bcd60e51b815260206004820152602160248201527f41726269747261676520646964206e6f742067656e65726174652070726f66696044820152601d60fa1b6064820152608401610270565b5f610a3c8383610cf5565b90507f9f51370fe0eed8407b751449f0bf9ae3f5667f007a2ab895d820da7e2983ebab8160015f9054906101000a90046001600160a01b03166001600160a01b031663eb91d37e6040518163ffffffff1660e01b8152600401602060405180830381865afa158015610ab0573d5f803e3d5ffd5b505050506040513d601f19601f82011682018060405250810190610ad49190610cc3565b60025f9054906101000a90046001600160a01b03166001600160a01b031663eb91d37e6040518163ffffffff1660e01b8152600401602060405180830381865afa158015610b24573d5f803e3d5ffd5b505050506040513d601f19601f82011682018060405250810190610b489190610cc3565b6040805193845260208401929092529082015260600160405180910390a15050505050565b610b75610baa565b6001600160a01b038116610b9e57604051631e4fbdf760e01b81525f6004820152602401610270565b610ba781610bd6565b50565b5f546001600160a01b0316331461034a5760405163118cdaa760e01b8152336004820152602401610270565b5f80546001600160a01b038381166001600160a01b0319831681178455604051919092169283917f8be0079c531659141344cd1fd0a4f28419497f9722a3daafe3b4186f6b6457e09190a35050565b80356001600160a01b0381168114610c3b575f80fd5b919050565b5f8060408385031215610c51575f80fd5b610c5a83610c25565b946020939093013593505050565b8015158114610ba7575f80fd5b5f8060408385031215610c86575f80fd5b823591506020830135610c9881610c68565b809150509250929050565b5f60208284031215610cb3575f80fd5b610cbc82610c25565b9392505050565b5f60208284031215610cd3575f80fd5b5051919050565b5f60208284031215610cea575f80fd5b8151610cbc81610c68565b81810381811115610d1457634e487b7160e01b5f52601160045260245ffd5b9291505056fea2646970667358221220e11c5dddf80bea9919cfacc33c01c006becd317d29b660f8d467123d77cf0ce464736f6c63430008140033000000000000000000000000d05e72f6c74be61d74cb7e003f6e869c287606b000000000000000000000000002f957cf974797cf2cdebd43994232a38802581c0000000000000000000000001804c8ab1f12e6bbf3894d4083f33e07309d1f38",
        "nonce": "0x50",
        "chainId": "0x14a34"
      },
      "additionalContracts": [],
      "isFixedGasLimit": false
    },
    {
      "hash": "0x3543ad7f8f4d83ba1d4e848a147b1220996f36b7ec24b651e80e6528d1109028",
      "transactionType": "CALL",
      "contractName": "LiquidityToken1",
      "contractAddress": "0x0f1d6c76774926bf4c4f5a8629066af006e1b570",
      "function": "mint(address,uint256)",
      "arguments": [
        "0x5a0be4afe3EfD82dD574025a975a598F34366740",
        "100000000000000000000"
      ],
      "transaction": {
        "from": "0xaaf296ac355b938d6263ac1ccbb4ac61c964d176",
        "to": "0x0f1d6c76774926bf4c4f5a8629066af006e1b570",
        "gas": "0x12843",
        "value": "0x0",
        "input": "0x40c10f190000000000000000000000005a0be4afe3efd82dd574025a975a598f343667400000000000000000000000000000000000000000000000056bc75e2d63100000",
        "nonce": "0x51",
        "chainId": "0x14a34"
      },
      "additionalContracts": [],
      "isFixedGasLimit": false
    },
    {
      "hash": "0x6c109ed86aaf02fd6769be7864d8696a58cb9f7196d69e8fcf08089565a86e90",
      "transactionType": "CALL",
      "contractName": "LiquidityToken2",
      "contractAddress": "0xe1a327ae69156ee7b5ce59a057b823c760438535",
      "function": "mint(address,uint256)",
      "arguments": [
        "0x5a0be4afe3EfD82dD574025a975a598F34366740",
        "100000000000000000000"
      ],
      "transaction": {
        "from": "0xaaf296ac355b938d6263ac1ccbb4ac61c964d176",
        "to": "0xe1a327ae69156ee7b5ce59a057b823c760438535",
        "gas": "0x12843",
        "value": "0x0",
        "input": "0x40c10f190000000000000000000000005a0be4afe3efd82dd574025a975a598f343667400000000000000000000000000000000000000000000000056bc75e2d63100000",
        "nonce": "0x52",
        "chainId": "0x14a34"
      },
      "additionalContracts": [],
      "isFixedGasLimit": false
    }
  ],
  "receipts": [
    {
      "status": "0x1",
      "cumulativeGasUsed": "0xf570c2",
      "logs": [
        {
          "address": "0x5a0be4afe3efd82dd574025a975a598f34366740",
          "topics": [
            "0x8be0079c531659141344cd1fd0a4f28419497f9722a3daafe3b4186f6b6457e0",
            "0x0000000000000000000000000000000000000000000000000000000000000000",
            "0x0000000000000000000000001804c8ab1f12e6bbf3894d4083f33e07309d1f38"
          ],
          "data": "0x",
          "blockHash": "0xf4950ae46e95df60c11aac63eda04703608291dc4b650b0b5e2909161a292d95",
          "blockNumber": "0x187fbc7",
          "transactionHash": "0xb99e058e8d7c1a42f7933b118e5f91a7c1fb419df29b27b87615abe043c96199",
          "transactionIndex": "0xb1",
          "logIndex": "0x3d",
          "removed": false
        }
      ],
      "logsBloom": "0x00000000000000000080000000000000000000000000000000800000000000000000000000000000000000000000000000000000000000000000000000000000000000000000000000000000000000000001000000000000000000000000000000000000020000000001000000000800000000000000000000000000000000400000000000000000000004000000000000000000000000000000000000000000000000000000000000000000000000000000000000000000000000000000000000000000000004000000200000000000000000000000000000000000000020000000000000000000000000000000000000000000000000000000000000000010",
      "type": "0x2",
      "transactionHash": "0xb99e058e8d7c1a42f7933b118e5f91a7c1fb419df29b27b87615abe043c96199",
      "transactionIndex": "0xb1",
      "blockHash": "0xf4950ae46e95df60c11aac63eda04703608291dc4b650b0b5e2909161a292d95",
      "blockNumber": "0x187fbc7",
      "gasUsed": "0xe2740",
      "effectiveGasPrice": "0x4e7ce2",
      "from": "0xaaf296ac355b938d6263ac1ccbb4ac61c964d176",
      "to": null,
      "contractAddress": "0x5a0be4afe3efd82dd574025a975a598f34366740",
      "l1BaseFeeScalar": "0x44d",
      "l1BlobBaseFee": "0x1",
      "l1BlobBaseFeeScalar": "0xa118b",
      "l1Fee": "0x978d84fe",
      "l1GasPrice": "0x4697611",
      "l1GasUsed": "0x79df"
    },
    {
      "status": "0x1",
      "cumulativeGasUsed": "0xf63b55",
      "logs": [
        {
          "address": "0x0f1d6c76774926bf4c4f5a8629066af006e1b570",
          "topics": [
            "0xddf252ad1be2c89b69c2b068fc378daa952ba7f163c4a11628f55a4df523b3ef",
            "0x0000000000000000000000000000000000000000000000000000000000000000",
            "0x0000000000000000000000005a0be4afe3efd82dd574025a975a598f34366740"
          ],
          "data": "0x0000000000000000000000000000000000000000000000056bc75e2d63100000",
          "blockHash": "0xf4950ae46e95df60c11aac63eda04703608291dc4b650b0b5e2909161a292d95",
          "blockNumber": "0x187fbc7",
          "transactionHash": "0x3543ad7f8f4d83ba1d4e848a147b1220996f36b7ec24b651e80e6528d1109028",
          "transactionIndex": "0xb2",
          "logIndex": "0x3e",
          "removed": false
        }
      ],
      "logsBloom": "0x00000000000000000000000000000000000000000000000000000000000000000000000000000000000000010000000000000000000000000000000000000000000040000000000000000008000000000000000000000000000000000000000000000000020000000000000000000800000000000000000000000010000000000000000000000000000000000000000000000000000000000000000000000000000000000000000000000000000000000000000000000000000000010000000000000002000000000000000000000000000000000000000000000000000020000001000010000000000000000000000000000000000040000000000000000000",
      "type": "0x2",
      "transactionHash": "0x3543ad7f8f4d83ba1d4e848a147b1220996f36b7ec24b651e80e6528d1109028",
      "transactionIndex": "0xb2",
      "blockHash": "0xf4950ae46e95df60c11aac63eda04703608291dc4b650b0b5e2909161a292d95",
      "blockNumber": "0x187fbc7",
      "gasUsed": "0xca93",
      "effectiveGasPrice": "0x4e7ce2",
      "from": "0xaaf296ac355b938d6263ac1ccbb4ac61c964d176",
      "to": "0x0f1d6c76774926bf4c4f5a8629066af006e1b570",
      "contractAddress": null,
      "l1BaseFeeScalar": "0x44d",
      "l1BlobBaseFee": "0x1",
      "l1BlobBaseFeeScalar": "0xa118b",
      "l1Fee": "0x7c5a8ec",
      "l1GasPrice": "0x4697611",
      "l1GasUsed": "0x640"
    },
    {
      "status": "0x1",
      "cumulativeGasUsed": "0xf705e8",
      "logs": [
        {
          "address": "0xe1a327ae69156ee7b5ce59a057b823c760438535",
          "topics": [
            "0xddf252ad1be2c89b69c2b068fc378daa952ba7f163c4a11628f55a4df523b3ef",
            "0x0000000000000000000000000000000000000000000000000000000000000000",
            "0x0000000000000000000000005a0be4afe3efd82dd574025a975a598f34366740"
          ],
          "data": "0x0000000000000000000000000000000000000000000000056bc75e2d63100000",
          "blockHash": "0xf4950ae46e95df60c11aac63eda04703608291dc4b650b0b5e2909161a292d95",
          "blockNumber": "0x187fbc7",
          "transactionHash": "0x6c109ed86aaf02fd6769be7864d8696a58cb9f7196d69e8fcf08089565a86e90",
          "transactionIndex": "0xb3",
          "logIndex": "0x3f",
          "removed": false
        }
      ],
      "logsBloom": "0x00000000000000000000000000000000000000000000000000000000000000000000000000000000000000000000000000000000000000000000000000000000000040000000000000000008000000000000000000000000000000000000000000000000020000000000000000000800000000000000000000000010000000000000000000000400000000000000000000000000000000000000000000000000000000000000000000000000000000000000000000000800000000010000000000000002000000000000000000000000000000000000000000000000000020000000000000000000000000000000000000000000000040200000000000000000",
      "type": "0x2",
      "transactionHash": "0x6c109ed86aaf02fd6769be7864d8696a58cb9f7196d69e8fcf08089565a86e90",
      "transactionIndex": "0xb3",
      "blockHash": "0xf4950ae46e95df60c11aac63eda04703608291dc4b650b0b5e2909161a292d95",
      "blockNumber": "0x187fbc7",
      "gasUsed": "0xca93",
      "effectiveGasPrice": "0x4e7ce2",
      "from": "0xaaf296ac355b938d6263ac1ccbb4ac61c964d176",
      "to": "0xe1a327ae69156ee7b5ce59a057b823c760438535",
      "contractAddress": null,
      "l1BaseFeeScalar": "0x44d",
      "l1BlobBaseFee": "0x1",
      "l1BlobBaseFeeScalar": "0xa118b",
      "l1Fee": "0x7c5a8ec",
      "l1GasPrice": "0x4697611",
      "l1GasUsed": "0x640"
    }
  ],
  "libraries": [],
  "pending": [],
  "returns": {},
  "timestamp": 1747146351,
  "chain": 84532,
  "commit": null
}